:020000040800F2
:10000000A8D300200D020008C1270008151D000814
:10001000BD270008ED0600083F460008000000006C
:10002000000000000000000000000000613A00082D
:10003000ED14000800000000092A0008250200084D
:1000400027020008270200082702000827020008EC
:10005000270200082702000827020008B51500083B
:1000600027020008270200082702000827020008CC
:100070002702000827020008FD0D0008190E0008DD
:1000800027020008270200081103000827020008C1
:10009000D945000827020008270200083D1600087D
:1000A000270200082702000827020008270200088C
:1000B000454300082702000827020008270200081D
:1000C000270200082702000827020008270200086C
:1000D000270200082702000827020008270200085C
:1000E0002115000827020008D14400082702000853
:1000F000270200082702000827020008270200083C
:10010000270200082702000827020008270200082B
:10011000270200082702000827020008270200081B
:10012000270200082702000827020008270200080B
:1001300000F002F800F05AF80AA090E8000C82449F
:100140008344AAF10107DA4501D100F04FF8AFF27C
:10015000090EBAE80F0013F0010F18BFFB1A43F0A5
:100160000103184760850000808500000A444FF0B5
:10017000000C10F8013B13F0070408BF10F8014B06
:100180001D1108BF10F8015B641E05D010F8016B4B
:10019000641E01F8016BF9D113F0080F1EBF10F8AF
:1001A000014BAD1C0C1B09D16D1E58BF01F801CBD2
:1001B000FAD505E014F8016B01F8016B6D1EF9D555
:1001C0009142D6D37047000000230024002500266A
:1001D000103A28BF78C1FBD8520728BF30C148BFAA
:1001E0000B6070471FB51FBD10B510BD00F058F86B
:1001F0001146FFF7F7FF06F0A9FD00F076F803B40B
:10020000FFF7F2FF03BC00F07BF8000009488047CD
:1002100009480047FEE7FEE7FEE7FEE7FEE7FEE7E8
:10022000FEE7FEE7FEE7FEE704480549054A064B00
:1002300070470000E542000831010008A8CD002009
:10024000A8D30020A8CF0020A8CF00204FF00002A4
:1002500000B5134694469646203922BFA0E80C50BC
:10026000A0E80C50B1F12001BFF4F7AF090728BF97
:10027000A0E80C5048BF0CC05DF804EB890028BF13
:1002800040F8042B08BF704748BF20F8022B11F03C
:10029000804F18BF00F8012B7047704770477047B8
:1002A000754600F029F8AE4605006946534620F031
:1002B0000700854618B020B5FFF7B6FFBDE820401F
:1002C0004FF000064FF000074FF000084FF0000B12
:1002D00021F00701AC46ACE8C009ACE8C009ACE8C5
:1002E000C009ACE8C0098D4670470446AFF30080F2
:1002F0002046FFF784FF00000048704744CD0020EF
:1003000001491820ABBEFEE726000200704700003E
:1003100010B500BF564A126822F00102544B1A6011
:100320001A1F126822F480721B1F1A60514B1B881F
:10033000504C648823444F4CA48823444D4CE4889B
:100340001A19D31702EB9373C3F38F0041F6BE1251
:10035000424340F6FF7392FBF3F290B2B0F57A6F2E
:1003600007DB41F26802904203DA0B22424B1A701B
:100370003BE040F63C72904206DBB0F57A6F03DA60
:100380000C223D4B1A7030E040F6D862904207DBF9
:1003900040F63C72904203DA0D22374B1A7024E08B
:1003A00040F67462904207DB40F6D862904203DA6E
:1003B0000E22314B1A7018E040F6AC52904207DB27
:1003C00040F67462904203DA0F222B4B1A700CE055
:1003D00040F6AC52904208DA0322284B1A70284AA1
:1003E000126822F44462264B1A604FF47A7290FB32
:1003F000F2F2D2B242F03002224B1A704FF47A720B
:1004000090FBF2F302FB1302642392FBF3F2D2B2ED
:1004100042F030021B4B9A704FF47A7290FBF2F369
:1004200002FB1302642392FBF3F403FB142291B248
:100430000A2291FBF2F2D2B242F03002114BDA7092
:100440000A2291FBF2F302FB1312D2B242F0300205
:100450000C4B1A7180220C4B1A6017220B4B1A702E
:100460000B4A128842F48052094B1A8010BD0000DA
:1004700008240140569500207E95002045950020D7
:10048000000401405E950020100C01407F95002083
:100490002008004000B58DB04FF4404002F0F6FA5D
:1004A0000121480202F0EEFB0120ADF830000020EF
:1004B0008DF833000CA94A4801F0C0F98020ADF84E
:1004C000300014208DF833000CA9454801F0B6F92E
:1004D0004FF40000424910310860042004900020CD
:1004E00003900B903F4802900815089080200690DA
:1004F000202009903C48019080150790002005902D
:100500000A9001A9394800F00DFD0121374800F09B
:100510009FFC35484838006840F02000324948398F
:100520000860081D0068324908432F4944390860B3
:100530002D483C38006840F0E0602B493C390860A9
:1005400029482038006840F44010274920390860C5
:100550002548183800682749084323491839086096
:1005600021484838006840F480701F4948390860C5
:10057000081D006840F00100091D08601E4800F0D9
:10058000B6FF19484438006840F00800164944395D
:10059000086000BF14484438006810F0080FF9D113
:1005A00011484438006840F004000F49443908609D
:1005B00000BF0D484438006810F0040FF9D10A4814
:1005C0004438006840F4800007494439086002213B
:1005D000122002F01BF9122002F000F90DB000BD4C
:1005E000000C0140569500204C24014008000240B8
:1005F00000011E0008210400A086010030B5027829
:10060000002121E00023124C248814F4004F00D074
:1006100001230F4C24884FF6FF7505EA44040C4D66
:100620002C8012F0800F04D02C46248844F0010462
:100630002C805406220E33B1054C248841F221054A
:100640006C40034D2C80491C0829DBDB30BD0000C9
:10065000A295002030B50278002121E00023124C41
:10066000248814F4004F00D001230F4C24884FF647
:10067000FF7505EA44040C4D2C8012F0800F04D065
:100680002C46248844F001042C805406220E33B1F9
:10069000054C248841F221056C40034D2C80491CF7
:1006A0000829DBDB30BD00004895002010B504466A
:1006B00024B1012C07D0022C15D10AE01021012011
:1006C00003F0B2FA10E04FF48051022003F05CFA1C
:1006D0000AE01021012003F0A7FA4FF48051022014
:1006E00003F052FA00E000BF00BF10BD00BFFEE7FC
:1006F0000146CAB20B1243EA0220704710B500242B
:1007000004E0A748005DA7490855641CA648008876
:100710008442F6D3A3484068A4494860A148806851
:100720008860A14800881F280FD00220FFF7BEFF75
:1007300000209C490860487B1A22052103F048FBF1
:100740000021012003F00CFB10BD9648C07B282837
:1007500003D09448C07B2A2816D19248407C0106D9
:100760009048807C41EA00418E48C07C41EA0020EC
:100770008C49097D08438E4908608A48C17D807D87
:1007800041EA00208B490860864800688A4988420F
:100790006FD18448407B89490968884207D88148DD
:1007A000807B012803DB7F48807B10280DDD022041
:1007B000FFF77CFF7B49487B2422052103F008FBDF
:1007C0000021012003F0CCFAE8E07648C07B252820
:1007D0005FD01BDC15286FD00EDC08286DD006DC3E
:1007E00000285BD0032830D0042867D176E00A289F
:1007F00073D01228F9D12DE01A380A285ED2DFE82A
:1008000000F0392EB17D33B1B1B1B1438A286FD038
:100810000EDC552867D006DC282844D02A284ED084
:100820002F28E2D154E05A2829D08828DDD176E05B
:10083000A8286DD004DC8F286FD09E28D5D173E016
:10084000AA287BD0AF28D0D182E05649487B02F05D
:100850007BFD95E05349487B02F04EFC90E0514906
:10086000487B02F085FD8BE04E49487B02F080FD1D
:1008700086E086E04B49487B02F08EFC80E04949E7
:10088000487B02F07FFC7BE04649487B02F018FD84
:1008900076E04449487B02F0C5FC71E04149487B61
:1008A00002F06EFD6CE03F49487B42490A684049CE
:1008B000096802F07BFC63E01BE024E052E0394968
:1008C000487B3C490A683A49096802F095FD57E0BF
:1008D0003449487B02F070FD52E02AE03149487B00
:1008E00002F0F2FB4CE02F49487B02F029FC47E084
:1008F00029E02C49487B02F023FC41E02949487B50
:1009000002F01EFC3CE02749487B02F019FC37E06E
:100910002449487B02F014FC32E01EE00EE021493D
:10092000487B02F00DFC2BE01E49487B02F008FCDE
:1009300026E01C49487B02F003FC21E01949487B72
:1009400002F0FEFB1CE01749487B02F0F9FB17E0C0
:100950001449487B02F0F4FB12E01249487B02F094
:10096000EFFB0DE00220FFF7A1FE0E49487B20229D
:10097000052103F02DFA0021012003F0F1F900BF59
:100980000CE00220FFF792FE0649487B2022052159
:1009900003F01EFA0021012003F0E2F900BFD3E6C4
:1009A000D4CC002014CD00209696002034CD002019
:1009B000989600209C96002055534243149700209F
:1009C00008B50020009015E19048008800F00F0065
:1009D0008F4908700846007800287DD18D4800684E
:1009E0008D4908800846008800F030008B49088057
:1009F0008948008800F44050874908808549096883
:100A00004BF6BF7201EA020080F4005080F0200033
:100A100040F4004141F080017E4A11607B4800882B
:100A200010F0100F32D11046006848F60F710840E0
:100A30001146086001F070F9764909684BF6BF72FB
:100A400001EA02007449098811F4805F01D080F442
:100A500080507149098811F4005F01D080F4005082
:100A60006E49098811F0100F01D080F010006B4919
:100A7000098811F0200F01D080F0200081B241F4EC
:100A8000004141F08001634A116008BD614800687F
:100A900080B20090BDF8000010F4006F36D05D48C1
:100AA0000068C0F30E0048F68F710840594908608D
:100AB00003F094F9574909684BF6BF7201EA020046
:100AC0005549098811F4805F01D080F48050524963
:100AD000098811F4005F00E052E001D080F400507A
:100AE0004E49098811F0100F01D080F010004B49D9
:100AF000098811F0200F01D080F0200081B241F46C
:100B0000004141F08001434A1160BEE7BDF800009A
:100B100010F4004F6ED03F480068C0F30E0048F656
:100B20008F7108403B49086001F032FF394909687C
:100B30004BF6BF7201EA02003749098811F4805F61
:100B400001D080F480503449098811F4005F01D04D
:100B500080F400503149098811F0100F01D080F065
:100B600010002E49098811F0200F01D080F02000DC
:100B700081B241F4004141F08001264A116084E7CE
:100B800023480078234951F8200080B20090BDF836
:100B9000000010F4004F14D01D48007851F82000D8
:100BA000C0F30E0048F68F71084019490978194AB8
:100BB00042F8210016490978491E194A52F82100C5
:100BC0008047BDF8000010F0800F13D01048007867
:100BD000104951F8200048F60F7108400C49097877
:100BE0000C4A42F821000A490978491E0D4A52F878
:100BF0002100804707484430006880B203490880DC
:100C000010F4004F7FF4E0AE00BF3EE710970020E5
:100C1000B4950020005C0040C8950020CA950020D3
:100C2000F4960020D896002050BB3149496821F045
:100C300003012F4A51601146496841F0010151609A
:100C400000BF2B49496801F00C010429F9D1294959
:100C5000096821F01001274A11601146096821F046
:100C6000030111602249096821F08071204A116056
:100C700041F63F71920411854F211F4A118036E0E1
:100C80001C49096841F010011A4A116011460968AF
:100C900021F0030111601146096841F00101116062
:100CA0001349096841F08071114A116000BF104971
:100CB000096811F0007FFAD00D49496821F003015D
:100CC0000B4A51601146496841F00201516000BF72
:100CD0000749496801F00C010829F9D14BF67F3129
:100CE0004FF08042118540F2DF11034A11807047B6
:100CF00000100240002002402808004070B5054660
:100D00000C4600201C494870062088700846C470B4
:100D100004710020487105211748401C03F066FD4E
:100D20001648406840F40050144948600846406C3A
:100D300020F0010048640846806D20F001008865BD
:100D40000D48086508208864084645660120C86586
:100D50000846806D40F0020088650846406C40F00F
:100D6000010048640846806D40F00100886501205C
:100D70000349087070BD00004E950020000002403D
:100D8000A5950020094951F8201011F4804F0BD08F
:100D9000064951F8201048F68F7211404CF280023B
:100DA0001143024A42F8201070470000005C0040E6
:100DB000094951F8201011F0400F0BD0064951F8A5
:100DC000201048F68F72114048F2C0021143024AC7
:100DD00042F8201070470000005C0040064951F8BE
:100DE000201048F68F62114048F280021143024AF7
:100DF00042F8201070470000005C004000200449C9
:100E000008700448406840F4005002494860704748
:100E1000A4950020000002400948008800F5807079
:100E20000749088002200749087000200649087019
:100E30000648406840F400300449486070470000AC
:100E40004C9500204B950020A59500200000024005
:100E500070B504460D46244884422AD022481430F6
:100E6000844226D020482830844222D01E483C307C
:100E700084421ED01C48503084421AD01A48643034
:100E8000844216D018487830844212D017488442E1
:100E90000FD01648143084420BD0144828308442B6
:100EA00007D012483C30844203D01048503084426E
:100EB00000D104E040F229110DA003F095FC0DB122
:100EC000012D00D104E04FF4957109A003F08CFCD2
:100ED00025B1206840F00100206004E020684FF652
:100EE000FE710840206070BD080002400804024006
:100EF0002E2E5C53544D3332463130785F53746438
:100F00005065726970685F4472697665725C73726D
:100F1000635C73746D3332663130785F646D612E5B
:100F20006300000070B505460C4600265E48854209
:100F30002AD05D481430854226D05B48283085424F
:100F400022D059483C3085421ED057485030854207
:100F50001AD055486430854216D0534878308542BF
:100F600012D0524885420FD05048143085420BD0E1
:100F70004E482830854207D04C483C30854203D04B
:100F80004A485030854200D103E0CF2148A003F009
:100F90002BFCA068102801D0A06800B903E0D02184
:100FA00043A003F021FCE06820B1E068B0F5803F89
:100FB00000D203E0D1213EA003F016FC20694028B6
:100FC00001D0206900B903E0D22139A003F00CFC64
:100FD0006069802801D0606900B903E0D32134A0A2
:100FE00003F002FCA06938B1A069B0F5807F03D09E
:100FF000A069B0F5007F00D103E0D4212CA003F05C
:10100000F3FBE06938B1E069B0F5806F03D0E069C7
:10101000B0F5006F00D103E0D52125A003F0E4FB7B
:10102000206A202801D0206A00B903E0D62120A040
:1010300003F0DAFB606AB0F5405F09D0606AB0F592
:10104000005F05D0606AB0F5805F01D0606A00B9CA
:1010500003E0D72116A003F0C7FBA06AB0F5804FCC
:1010600001D0A06A00B903E0D82111A003F0BCFBB5
:101070002E6847F6F0708643216AA068084321690C
:10108000084361690843A1690843E1690843616A4B
:101090000843A16A084306432E60E0686860206840
:1010A000A8606068E86070BD080002400804024063
:1010B0002E2E5C53544D3332463130785F53746476
:1010C0005065726970685F4472697665725C7372AC
:1010D000635C73746D3332663130785F646D612E9A
:1010E000630000002DE9F0472848006800F1100572
:1010F0002E8826480068077AD6B9042F18D12448CC
:10110000007801280FD100212248006880B2801C9D
:10111000214A42F8101030202049088000BF0020EA
:101120001B49087003E0072710201C49088027E0AE
:10113000AC88A64201D8042000E002200746B44251
:1011400000D93446A0B2A96888478046002000F044
:10115000A9FD8146A2B24946404603F073FAA1B206
:10116000002002F053FD2888001B28806888204456
:10117000688030200949088000020949088000BFC2
:10118000024909680F72BDE8F0870000B895002099
:10119000AE950020505C004000600040CA950020E1
:1011A000C89500202DE9F0412848006800F110049E
:1011B0002688A068C0B1BEB1A588B54200D9354621
:1011C000A8B2A168884707462088401B2080608815
:1011D00028446080002000F039FD8046AAB24146D4
:1011E000384601F0FDFB00BF208850B14FF440505D
:1011F000174908800021084602F008FD30201549F3
:1012000008802088A188884204DB03200F490968F0
:10121000087218E02088002804DD05200B490968C1
:10122000087210E0208870B9062008490968087221
:1012300000210948006880B2801C084A42F810105A
:10124000302004490880BDE8F0810000B8950020F6
:10125000C8950020CA950020505C00400060004006
:101260002DE9F84F9848006845780027BA46062DC2
:101270001AD195480068007810F07F0F13D1924979
:1012800009688878012803D190490968CF690AE084
:10129000022803D18D4909680F6A04E0032802D1AE
:1012A0008A4909684F6A90E0002D60D1864800683D
:1012B000408800285BD184480068C088022856D145
:1012C000814800680079002851D17F480068007883
:1012D00010F07F0F05D17C480068808808B97C4FEA
:1012E00073E079480068007800F07F00012810D191
:1012F000754909684879754909688A6900219047E4
:10130000002862D170480068807A00285DD0704F54
:101310005BE06D480068007800F07F00022854D13F
:1013200069480068407900F00F0667480068407916
:1013300000F0700964480068407910F0800F05D013
:10134000644850F8260000F0300804E0614850F886
:10135000260000F4405860480078B04235D9B9F111
:10136000000F32D1B8F1000F2FD0594F2DE0082DCA
:1013700007D155480068007810F07F0F25D1574FEE
:1013800023E00A2D21D150480068007800F07F004A
:1013900001281AD14C480068807AB0B14A480068E8
:1013A000408890B948480068007970B9464800689C
:1013B000C088012809D14449096848794349096826
:1013C0008A690021904700B9454F57B13E480068EF
:1013D000A0F812A03C48006887610020B8470024AC
:1013E0000FE0394A12685078384A12681169884704
:1013F0000446032C05D10920334909680872BDE869
:10140000F88F31480068008AA0F57F41FF3904D188
:1014100009202D4909680872F1E7022C03D02A48F7
:101420000068008A20B90820274909680872E6E7A1
:1014300025480068007810F0800F3CD022480068F2
:10144000C088009020480068008A0099884204D92A
:101450001D4900980968088223E01B480068008A3B
:1014600019490968C98888421BDA17480068008A48
:101470001649096891F82C10884203DA00201949AE
:1014800008700EE010480068008A1049096891F859
:101490002C1090FBF1F201FB120010B90120114950
:1014A00008700A48006890F82C100748006881828C
:1014B000FFF718FE06E003200349096808720003DD
:1014C0000949088000BF9AE7B8950020BC95002024
:1014D00059400008005C004018970020DD3F0008DC
:1014E0002D400008AE950020C8950020704700EB05
:1014F000400149004FF0E02251610021916100BF9D
:101500004FF0E021096911F4803FF9D0704710B520
:1015100001F09AF810BD10B501F0DCF810BD000024
:1015200010B51F480068B0F5806F12D0B0F5006F9D
:1015300030D117201B4908701B48008840F48050A8
:1015400019490880012019490870C00200F0BAF852
:1015500020E041F28830FFF7CAFF172011490870D8
:101560001148008840F480500F49088010480078E6
:10157000022803D100200E49087004E00C480078CE
:10158000401C0B490870012008490870800200F0D7
:1015900099F800BF00BF402000F094F810BD000093
:1015A000140401407F95002020080040449500204D
:1015B0004695002010B541F28830FFF798FF184893
:1015C000006810F0020F1DD01648006820F48860F3
:1015D000144908600120FFF727FB012002F07EFF7D
:1015E00006201149087002F0A1FF01200F49087080
:1015F00017200F4908700F48008840F480500D49AB
:10160000088009E04FF480700B4908800420C870FE
:101610000348083800F012F9022000F053F810BD1A
:10162000080C01400004014045950020449500202D
:101630007F950020200800408095002010B51A48B2
:10164000FFF755FF1948006810F0400F15D11848F2
:10165000007820F002001649087002201549087031
:101660001720154908701548008840F48050134928
:10167000088001201249087011E003200C4908700D
:1016800001200C49087017200B4908700B4800888E
:1016900040F4805009490880012009490870402021
:1016A00000F010F810BD0000A0860100080C0140F9
:1016B00085950020459500207F950020200800405A
:1016C0004495002010B50446200D000501D104B159
:1016D00003E0FC2102A003F087F80E48046010BD6F
:1016E0002E2E5C53544D3332463130785F53746440
:1016F0005065726970685F4472697665725C737276
:10170000635C73746D3332663130785F6578746909
:101710002E6300001404014070B5044600252079B2
:1017200010B12079042800D103E06A2135A003F02C
:101730005BF86079082805D060790C2802D06079C0
:10174000102800D103E06B212EA003F04DF8206893
:10175000000D000502D1206800B103E06C2129A032
:1017600003F042F8A07910B1A079012800D103E07C
:101770006D2124A003F038F82F4DA07990B32846AE
:1017800000682168884329460860081D00682168B0
:101790008843291D0860207905442868216808438A
:1017A00028602548083000682168884322490831AC
:1017B0000860081D0068216888431F490C310860D3
:1017C000607910280FD1081F0068216808431A4962
:1017D00008310860081D00682168084316490C316B
:1017E00008600EE007E0144D607905442868216820
:1017F0000843286005E0207905442868216888436B
:10180000286070BD2E2E5C53544D333246313078F3
:101810005F5374645065726970685F44726976657D
:10182000725C7372635C73746D3332663130785FEF
:10183000657874692E630000000401402DE9F05FB3
:1018400005460C464FF00009CA4600260027B04660
:10185000B3465948854211D0584885420ED0584861
:1018600085420BD05748854208D05748854205D05D
:101870005648854202D05648854200D103E0B22145
:1018800054A002F0B1FFE078A0B1E078042811D0B4
:10189000E07828280ED0E07848280BD0E07814288B
:1018A00008D0E078102805D0E0781C2802D0E07835
:1018B000182800D103E0B32146A002F095FF0020D4
:1018C00010B9208800B103E0B42142A002F08CFFDF
:1018D000E07800F00F09E07810F0100F10D0A07839
:1018E000012805D0A078022802D0A078032800D1D2
:1018F00003E0BB2137A002F077FFA07840EA090996
:10190000207838B3D5F8008000261FE0012000FAC7
:1019100006F7208800EA070ABA4516D1B7000F205B
:1019200000FA07FB28EA0B0809FA07F040EA080862
:10193000E078282803D10120B040686105E0E07814
:10194000482802D10120B0402861761C082EDDD342
:10195000C5F800802088FF282BDDD5F804800026FC
:1019600023E006F10800012101FA00F7208800EACF
:10197000070ABA4518D1B7000F2000FA07FB28EA7A
:101980000B0809FA07F040EA0808E078282803D194
:1019900006F1080081406961E078482804D106F129
:1019A0000800012181402961761C082ED9D3C5F891
:1019B0000480BDE8F09F000000080140000C0140D9
:1019C000001001400014014000180140001C0140BB
:1019D000002001402E2E5C53544D33324631307876
:1019E0005F5374645065726970685F4472697665AC
:1019F000725C7372635C73746D3332663130785F1E
:101A00006770696F2E63000070B505460C460026AE
:101A10002848854211D0284885420ED02748854263
:101A20000BD02748854208D02648854205D0264855
:101A3000854202D02548854200D104E04FF48F71E1
:101A400023A002F0D1FE012C25D0022C23D0042C9F
:101A500021D0082C1FD0102C1DD0202C1BD0402CA6
:101A600019D0802C17D0B4F5807F14D0B4F5007F46
:101A700011D0B4F5806F0ED0B4F5006F0BD0B4F573
:101A8000805F08D0B4F5005F05D0B4F5804F02D078
:101A9000B4F5004F00D104E040F21F110CA002F099
:101AA000A3FEA868204201D0012600E000263046AF
:101AB00070BD000000080140000C01400010014012
:101AC0000014014000180140001C014000200140AA
:101AD0002E2E5C53544D3332463130785F5374644C
:101AE0005065726970685F4472697665725C737282
:101AF000635C73746D3332663130785F6770696F21
:101B00002E63000070B504460D461348844211D080
:101B1000124884420ED0124884420BD011488442AD
:101B200008D01148844205D01048844202D01048A1
:101B3000844200D104E040F279110EA002F054FE7C
:101B4000002008B905B104E04FF4BD7109A002F00E
:101B50004BFE656170BD000000080140000C0140B3
:101B6000001001400014014000180140001C014019
:101B7000002001402E2E5C53544D333246313078D4
:101B80005F5374645065726970685F44726976650A
:101B9000725C7372635C73746D3332663130785F7C
:101BA0006770696F2E63000070B504460D461348D8
:101BB000844211D0124884420ED0124884420BD085
:101BC0001148844208D01148844205D0104884420C
:101BD00002D01048844200D104E040F269110EA006
:101BE00002F002FE002008B905B104E04FF4B5711F
:101BF00009A002F0F9FD256170BD00000008014058
:101C0000000C014000100140001401400018014088
:101C1000001C0140002001402E2E5C53544D3332F5
:101C2000463130785F5374645065726970685F4400
:101C300072697665725C7372635C73746D3332665D
:101C40003130785F6770696F2E6300000146054888
:101C5000006880B200EBC100001D034A32F810009A
:101C600080B27047505C004000600040014606486A
:101C7000006880B200EBC100801D044A32F81000F9
:101C8000C0F3090070470000505C00400060004055
:101C90000146034850F8210000F44050704700000E
:101CA000005C004001460548006880B200EBC100BE
:101CB000034A32F8100080B270470000505C0040C8
:101CC00000600040014629B90120034A12681082D1
:101CD000002070470148FCE7B895002014970020C9
:101CE00070B50A480468001D0568001D0668344484
:101CF00054B108220649204600F0E4F904220449C0
:101D00001031284600F0DEF970BD0000E8F7FF1F33
:101D1000A296002000BFFEE710B518480068047ABC
:101D2000022C01D0042C05D1FFF7DCF91348006820
:101D3000047A1CE0062C19D1104800684078052868
:101D40000ED10E480068007810F07F0F08D10B49C3
:101D50000968C87801F0BCFE09490968086A80472B
:101D60000849096888688047082400E00824034976
:101D700009680C7200F04AFE10BD0000B895002002
:101D8000C4950020BC9500200EB5012000F0FEFF98
:101D90000121084600F0B0FE0121704800F0EEFE7F
:101DA000012144F20D0000F06DFF6D48806940F0A4
:101DB00070006B49886100208DF80B004FF6FF70B2
:101DC000ADF8080002A96748FFF738FD02A9664888
:101DD000FFF734FD02A96548FFF730FD48208DF874
:101DE0000B004FF40060ADF8080002A96048FFF74F
:101DF00025FD4FF48070ADF8080002208DF80A0030
:101E000010208DF80B0002A95948FFF717FD4FF479
:101E100080715748FFF7C8FE564840685649084346
:101E2000544948604FF48040ADF8080004208DF814
:101E30000B0002A94E48FFF701FD4020ADF8080055
:101E400002208DF80A0048208DF80B0002A94848AE
:101E5000FFF7F4FC4220009000208DF804001020D1
:101E60008DF8050001208DF806006846FFF754FC48
:101E70004FF44060009000208DF804000C208DF895
:101E8000050001208DF806006846FFF745FC10208C
:101E90003849886001013748C1604FF488510161B9
:101EA0004BF67F30890508854FF47A708885C00627
:101EB000008920F0070008810846808940F0010071
:101EC0008881012088828007008A20F00100088232
:101ED0000846008840F0010008801C2000F072FCD9
:101EE00002211C2000F092FC1C2000F077FC4FF433
:101EF0000070ADF8080018208DF80B0002A91C48EE
:101F0000FFF79CFC40F2DF101C4908804FF4FA7088
:101F1000091D0880FA20194918310880174820380F
:101F2000008820F0070015492039088013480C3834
:101F3000008840F4F04011490C390880081D0088E1
:101F400020F40050091D08800C482838008840F013
:101F500001000A49283908800EBD000005008018DC
:101F60000010024000100140001401400018014020
:101F7000000C014000000140010000022808004060
:101F800008B5A520494908704948008842F20C016B
:101F900088434749088040F60550091F0880081DFE
:101FA000008842F20C0108434149088040480C383F
:101FB000008820F040003E490C39088001F052FDB5
:101FC00000E030BF3B4800780028FAD13A48406C26
:101FD00020F00100384948640846406C20F00200B7
:101FE000486406216846FEF789FE012033490870DF
:101FF00000E030BF324800780028FAD19DF8000098
:10200000062824D12A48008842F20C018843284936
:10201000088040F24130091F0880081D008842F204
:102020000C0108432249088006216846FEF766FE37
:1020300001202249087000E030BF214800780028C4
:10204000FAD19DF80000062801D1002008BD1848EB
:10205000008842F20C0188431549088040F2413063
:10206000091F0880081D008842F20C01084310492E
:1020700008800F480C38008820F040000C490C39CB
:10208000088006216846FEF739FE01200B490870DA
:1020900000E030BF0A4800780028FAD19DF800001F
:1020A000062801D10020D1E70120CFE74E9500207E
:1020B0000C380140A4950020000002404B95002000
:1020C000A595002030B50B46002100BF16E00A247C
:1020D000B4EB107F05D9302404EB107403F81140E1
:1020E00005E0412404EB10740A3C03F811400001A0
:1020F00000254C00641C1D554C1CE1B29142E6DBEE
:1021000030BD000000B54FF0805008490860C01392
:1021100008604AF201000649086040070349086068
:1021200040F2A460FFF7E3F900BD0000100C01408D
:102130000C08014008B5FF20ADF8000010208DF814
:10214000030002208DF8020069465748FFF776FB2E
:102150004FF44050ADF8000069465448FFF76EFB5D
:1021600043F69820FFF7C3F94FF080504F491031E4
:102170000860C01308604AF230004B490C31086017
:102180004FF000504949103108602820FFF7AFF99F
:102190004FF08050454910310860C01308604AF282
:1021A000300041490C3108604FF000503F49103178
:1021B00008602820FFF79BF94FF080503B49103111
:1021C0000860C01308604AF2300037490C310860DB
:1021D0004FF000503549103108602820FFF787F98B
:1021E0004FF08050314910310860C01308604AF246
:1021F0003B002D490C3108604FF000502B49103145
:1022000008602820FFF773F94FF0805027491031FC
:102210000860C01308604AF2080023490C310860C6
:1022200080062249103108602820FFF760F94FF03E
:1022300080501E4910310860C01308604AF2010046
:1022400019490C310860400718491031086040F204
:10225000A460FFF74CF94FF080501449103108602A
:10226000C01308604AF206000F490C3108604FF0B5
:1022700000500E49103108602820FFF738F94FF060
:1022800080500A4910310860C01308604AF20C00FF
:1022900005490C3108604FF00050044910310860C6
:1022A0002820FFF724F908BD00080140000C014078
:1022B00000B503464FF480500749086040000860AD
:1022C00043F42040054908604FF00050024908607F
:1022D0002820FFF70CF900BD100C01400C0801404C
:1022E00030B505460C46204601F058FD4FF48050AD
:1022F000074908604000086045F42040054908602F
:102300004FF00050024908602820FFF7F0F830BD78
:10231000100C01400C08014070B504460E463046D2
:1023200001F03CFD002513E04FF480500A4908609D
:1023300040000860605D40F42040084908604FF0AC
:102340000050054908602820FFF7D1F8681CC5B285
:10235000605D0028E8D170BD100C01400C08014000
:10236000F0B504460D461646284601F017FD002735
:1023700014E04FF480500B4908604000086020785A
:1023800040F42040084908604FF0005005490860BB
:102390002820FFF7ACF8641C781CC7B2B742E8DB12
:1023A000F0BD0000100C01400C080140014691B93D
:1023B0000A48007878B90A4840680A4A10604FF421
:1023C0000070094A10600748006812685043074AC5
:1023D0001060002070470120FCE700008595002078
:1023E00064BC0020E0950020D8950020D095002006
:1023F00070B50546002414480068007800F07F009E
:10240000212810D1FE2D0ED10F480068408850B908
:102410000D480068808830B90B480068C0880128E2
:1024200001D10A4C01E0022070BD0CB90220FBE78B
:10243000054800688461002103480068418200204B
:10244000A0470020F0E70000B8950020C51C000858
:1024500010B504460249204601F0D6FD10BD00002B
:102460007897002010B504460249204601F0CCFDC3
:1024700010BD00007097002070B505460648006842
:10248000C478052C01DD002070BD044800EBC401B8
:10249000284601F0B9FDF7E7B895002080970020A5
:1024A0000246002901DD02207047002A01DD0220DA
:1024B000FAE70020F8E7000010B50446114800686C
:1024C000007800F07F0021281AD1FF2C18D10D4888
:1024D00000684088A0B90B480068808880B9094826
:1024E0000068C08860B90120FEF762FC0220FEF798
:1024F00049FC05480549086000200549087010BDE1
:102500000220FCE7B89500205553424314CD00202B
:102510009496002010B50020324988723248C07964
:10252000324909684872002001F0CAFA4FF400717C
:10253000002001F095FB2021002001F075FB1821FF
:10254000002001F0E9FA2A4890F82C10002001F050
:10255000F5FA5821002001F049FB0020FEF73EFC6F
:10256000002001F02DFB0021012001F079FB9821D2
:10257000012001F03BFB2021012001F055FB00214F
:10258000012001F001FB0021022001F069FBD821AC
:10259000022001F0C1FA164890F82C10022001F038
:1025A000CDFA4FF44051022001F0EEFA0021022052
:1025B00001F03AFB0E4890F82C10002001F0BEFA12
:1025C000002001F0FDFA002001F082FA0120094903
:1025D000086009480949086000200949087001F0AD
:1025E000FFFF10BDB8BC00209A850008B8950020F8
:1025F0001C970020A89700205553424314CD00207B
:10260000949600207047704710B5FFF769FB0020D3
:1026100004490968887200F01DFA00200249086028
:1026200010BD0000B8950020A897002010B5044800
:1026300000680449884202D00220FEF737F810BD36
:1026400014CD00205553424310B51E48007802288F
:102650001BD0032828D0042802D005282ED100E062
:1026600000BF0020174908704FF44051022001F0CC
:102670008BFA0220FFF70CFBB0F5805F04D14FF41A
:102680004051022001F080FA19E00F48C07B282851
:1026900008D10D49487B0D490A680D49096800F0C9
:1026A00085FD00BF00BF0AE00121002001F058FBBA
:1026B0004FF44051022001F067FA00E000BF00BF74
:1026C00010BD00009496002014CD00209C960020A0
:1026D0009896002010B51D48C47B1D49022001F0CA
:1026E00080FF1C4908801C48007810B101281CD1CB
:1026F00002E0FEF703F826E02A2C08D11349487BB4
:1027000016490A681649096800F076FE1BE00120A8
:10271000FDF7CCFF0D49487B2422052101F058FB31
:102720000021022001F01CFB0DE00220FDF7BEFF9E
:102730000649487B2422052101F04AFB00210220A2
:1027400001F00EFB00BF00BF10BD000014CD002043
:10275000D4CC002096960020949600209C960020D1
:102760009896002010B50C480068807A98B1052032
:102770000A49086001200A490870052009490870C3
:10278000012009490870FEF713FB0220FEF7FAFA50
:1027900000200649087010BDB8950020A8970020B9
:1027A0004495002045950020AC9700209496002089
:1027B0000420014908607047A897002000BFFEE789
:1027C0007047704700F01F0201219140024A4309FF
:1027D00042F823107047000080E200E000F01F0282
:1027E0000121914042094FF0E02303EB8202C2F83D
:1027F0000011704700F01F020121914042094FF083
:10280000E02303EB8202C2F80011704710B50028E4
:1028100007DA0A07140E054A00F00F031B1FD454F1
:1028200003E00A07130E024A135410BD18ED00E02E
:1028300000E400E010B5002807DA0A07140E054A84
:1028400000F00F031B1FD45403E00A07130E024AC3
:10285000135410BD18ED00E000E400E070B502264E
:1028600046480068447845480068007810F07F0FBB
:1028700044D1092C03D101F06BFC06465FE0052C26
:1028800014D13E480068C0787F280BDC3B480068C4
:10289000807838B939480068808818B937480068A6
:1028A000807A08B1082565E0002648E0032C0ED1A7
:1028B00032480068C078012807D130480068808815
:1028C00018B901F069FC064639E0022637E0012C10
:1028D00035D12A480068C07801280DD12748006802
:1028E000808848B925480068407A10F0200F03D04E
:1028F00001F0D0FA064622E0022620E01F480068D8
:10290000007800F07F00012805D10B2C17D101F0D1
:10291000B3FC064613E019480068007800F07F0019
:1029200002280BD1012C03D101F0B4FA064606E0CF
:10293000032C04D101F044FC064600E002264EB10F
:10294000E0B20F4A1268516988470646032E01D14A
:1029500009250FE00EB108250CE0062500210948E5
:10296000006880B2801C084A42F8101030200749E5
:10297000088000BF014909680D7270BDB89500203C
:10298000BC950020505C004000600040CA950020CB
:1029900010B511480068047A022C01D0042C01D132
:1029A000082412E0032C01D0052C05D1FEF7FAFB18
:1029B00009480068047A08E0072C05D1074909682E
:1029C000C8688047082400E00824034909680C729D
:1029D00000F01CF810BD0000B8950020BC95002048
:1029E000F0B5561C7510074E06EB41042B4605E06A
:1029F00034F8047B20F8017B401C5B1E002BF7D1D0
:102A0000F0BD0000006000407047000010B50D48A8
:102A100090F82C10002001F091F80B480068007A23
:102A2000082805D14002094908801020084908807B
:102A300005480068007A092801D1012010BD002056
:102A4000FCE700001C970020B8950020C8950020E6
:102A5000CA95002001210B48016000200A4A10801D
:102A600010460088074A10600020121D10604FF4C5
:102A70000440054A108010460088024A1060002079
:102A800070470000405C0040C295002070B50446CD
:102A9000002544B1B4F5804F05D0B4F5004F02D005
:102AA000B4F5404F00D104E040F2023104A001F03F
:102AB0009BFE1048456825F440452543456070BDA0
:102AC0002E2E5C53544D3332463130785F5374644C
:102AD0005065726970685F4472697665725C737282
:102AE000635C73746D3332663130785F7263632E6A
:102AF000630000000010024070B504460D4640F22D
:102B0000575034EA000001D104B104E040F22B41F7
:102B10000CA001F069FE0DB1012D00D104E040F2DE
:102B20002C4108A001F060FE2DB1134840692043FC
:102B30001149486104E010484069A0430E494861CA
:102B400070BD00002E2E5C53544D33324631307828
:102B50005F5374645065726970685F44726976652A
:102B6000725C7372635C73746D3332663130785F9C
:102B70007263632E630000000010024070B50446CB
:102B80000D461048044201D104B104E040F269410D
:102B90000DA001F029FE0DB1012D00D104E040F29D
:102BA0006A4109A001F020FE2DB11448C0692043FC
:102BB0001249C86104E01148C069A0430F49C861C7
:102BC00070BD0000003601812E2E5C53544D33320F
:102BD000463130785F5374645065726970685F4441
:102BE00072697665725C7372635C73746D3332669E
:102BF0003130785F7263632E630000000010024082
:102C000070B504460D461048044201D104B104E0F9
:102C100040F2C3410DA001F0E7FD0DB1012D00D13F
:102C200004E040F2C44109A001F0DEFD2DB11448DA
:102C3000006920431249086104E011480069A0437B
:102C40000F49086170BD0000003601812E2E5C53D3
:102C5000544D3332463130785F5374645065726935
:102C600070685F4472697665725C7372635C7374DA
:102C70006D3332663130785F7263632E630000001B
:102C80000010024070B504460D461048044201D1C0
:102C900004B104E040F24A410DA001F0A5FD0DB1E0
:102CA000012D00D104E040F24B4109A001F09CFD50
:102CB0002DB11448806920431249886104E011480D
:102CC0008069A0430F49886170BD00000200C0FF09
:102CD0002E2E5C53544D3332463130785F5374643A
:102CE0005065726970685F4472697665725C737270
:102CF000635C73746D3332663130785F7263632E58
:102D0000630000000010024070B504460D461048F4
:102D1000044201D104B104E040F2A4410DA001F04D
:102D200063FD0DB1012D00D104E040F2A54109A0E1
:102D300001F05AFD2DB11448C06820431249C86003
:102D400004E01148C068A0430F49C86070BD00008E
:102D50000200C0FF2E2E5C53544D33324631307882
:102D60005F5374645065726970685F447269766518
:102D7000725C7372635C73746D3332663130785F8A
:102D80007263632E630000000010024010B5044619
:102D90000CB1012C00D104E040F2DB2102A001F0D3
:102DA00023FD0E48046010BD2E2E5C53544D33326B
:102DB000463130785F5374645065726970685F445F
:102DC00072697665725C7372635C73746D333266BC
:102DD0003130785F7263632E63000000D800424296
:102DE00070B505460C4600201B49487001208870CC
:102DF000CC70201208710020487105211648401C33
:102E000001F0F4FC1548406840F400501349486054
:102E10000846406C20F0010048640846806D20F0B0
:102E20000100886508208864084645664FF4817073
:102E3000C8650846806D40F0020088650846406C11
:102E400040F0010048640846806D40F0010088654C
:102E500001200349087070BD4E950020000002401B
:102E6000A595002070B504460D4600201A4948700B
:102E7000022088700020C87008714871052116482A
:102E8000401C01F0B3FC1548406840F40050134961
:102E900048600846406C20F0010048640846806D98
:102EA00020F0010088650820886408464466A81C54
:102EB000C8650846806D40F0020088650846406C91
:102EC00040F0010048640846806D40F001008865CC
:102ED00001200349087070BD4E950020000002409B
:102EE000A595002070B504460D4616464948007861
:102EF00098B9494850F82400684348490860464852
:102F000050F8240070434649086008460068400AAB
:102F10004449086001203F4908703E480078012874
:102F200067D141480068D0BB3E480068012812D9EB
:102F30003C480068082806D908223C493748006800
:102F400000F014FD0CE03748384902683348006847
:102F500000F00CFD04E035493048006800F0EEFC5C
:102F600040223249812001F053FB2E480068082896
:102F700008D9294850F824004021C1EBC0002A4953
:102F8000086008E0244850F82400264909684843AE
:102F900040382549086040202549086012E0FFE7D5
:102FA0002248234A126881184022812001F030FB18
:102FB0001D48006840381C4908601D4800684030C2
:102FC0001B4908604021012000F020FE3021012033
:102FD00000F02AFE1148006840301049086010488F
:102FE000006840380E49086012488068403811492E
:102FF00088600B48006860B900200B4908600C49E4
:1030000008600649086003200B4908700020014948
:10301000087070BDF0950020D8950020F495002030
:10302000F8950020FC950020E8950020D4BC0020F5
:103030000C96002034CD0020949600202DE9F0411C
:1030400004460D4617461E46B8191C4951F824106F
:10305000884213D92A2D02D10220FDF727FB002038
:10306000FDF724FB21220521204600F0B1FE0021BE
:10307000012000F075FE0020BDE8F0811048816855
:10308000104850F824007043814214D02A2D03D1F7
:103090000220FDF70BFB02E00020FDF707FB0849CB
:1030A000487B2422052100F093FE0021012000F03E
:1030B00057FE0020E0E70120DEE70000E095002059
:1030C00014CD0020D895002010B504462046FFF707
:1030D0006DF968B10749487B3A22022100F078FE79
:1030E0000121084600F03CFE0020FDF7DFFA10BD8C
:1030F00000BFFCE714CD002070B506460C48007CEC
:1031000010F0010F02D00B4C05250BE00EB90A4C54
:1031100000E00A4C0648C07C242802DC0448C57C38
:1031200000E024252946204601F07CF970BD00000E
:1031300014CD002014960020199600203D96002002
:1031400010B504460E48806818B90020FDF7AEFAA5
:103150000BE00B48007B10F0800F03D00020FDF740
:10316000A5FA02E00220FDF7A1FA0549487B2022DA
:10317000052100F02DFE0021012000F0F1FD10BD21
:1031800014CD002010B504460821024801F04AF988
:1031900010BD00006596002010B5044604210248C9
:1031A00001F040F910BD00006196002070B50646A0
:1031B0000C4615461948007820BB1949487B2B4618
:1031C00022462821FFF73AFF00B970BD1448007B62
:1031D00010F0800F08D00220104908702A462146BE
:1031E0003046FFF77FFE0CE00220FDF75FFA0C4946
:1031F000487B2422052100F0EBFD0121084600F068
:10320000AFFDE2E705480078022804D12A462146AE
:103210003046FFF767FE00BFD7E700009496002016
:1032200014CD002010B504462046FFF7BFF868B162
:103230001F49487B3A22022100F0CAFD01210846BD
:1032400000F08EFD0020FDF731FA10BD194850F84E
:103250002400401E000E18490870164850F824003B
:10326000401E000C4870134830F82400401E000A2D
:103270008870104810F82400401EC8700F4850F89D
:103280002400000E08710D4850F82400000C48710D
:103290000A4830F82400000A8871084810F8240011
:1032A000C8710821044801F0BDF800BFCDE7000057
:1032B00014CD0020E09500207F960020D8950020B6
:1032C00010B504462046FFF771F868B11A49487BEB
:1032D0003A22022100F07CFD0121084600F040FD69
:1032E0000020FDF7E3F910BD144850F82400000E4B
:1032F00013490871114850F82400000C48710F4818
:1033000030F82400000A88710C4810F82400C871B5
:103310000C4850F82400000C48720A4830F8240089
:10332000000A8872074810F82400C8720C2104486B
:1033300001F078F800BFD6E714CD0020E09500201A
:1033400087960020D895002070B505460648C07CB9
:10335000122802DC0448C47C00E012242146034801
:1033600001F060F870BD000014CD00206D960020C3
:1033700010B504460121002000F0F2FC10BD000051
:1033800010B504462046FFF711F868B10949487B9B
:103390003A22022100F01CFD0121084600F0E0FC69
:1033A0000020FDF783F910BD0121002000F0D8FCBA
:1033B00000BFF8E714CD002010B504460D48806822
:1033C00048B90C48007C10F0040F04D10121002002
:1033D00000F0C6FC0CE00220FDF768F90549487BC7
:1033E0002422052100F0F4FC0021012000F0B8FCAB
:1033F00010BD000014CD002070B506460C461546E1
:103400001948007820BB1949487B2B4622462A21BF
:10341000FFF714FE00B970BD1448007B10F0800F58
:1034200008D10120104908704FF44051022000F0EB
:10343000ABFB0CE00020FDF739F90C49487B242256
:10344000052100F0C5FC0021012000F089FCE2E725
:1034500005480078012804D12A462146304601F06B
:103460000DF900BFD7E700009496002014CD00208E
:1034700010B586B000F0E0F91649002002F0C2FE57
:1034800004462A4601A914A002F0B7F904460D2CFF
:103490000BD14FF480520021084602F099FB2A46D6
:1034A00001A90DA002F0A9F904469DF804003728EF
:1034B0000AD09DF805004B2806D09DF80600542838
:1034C00002D006A002F0A2FF04F002FC204606B0E3
:1034D00010BD0000C8B70020303A0000374B5453ED
:1034E0005F5553420000000070B504460D46124877
:1034F000844205D01148844202D01148844200D150
:1035000004E040F29A210FA001F06EF90DB1012DF7
:1035100000D104E040F29B210AA001F065F925B139
:10352000208840F40050208004E020884DF6FF7190
:103530000840208070BD000000300140003800408D
:10354000003C00402E2E5C53544D333246313078CF
:103550005F5374645065726970685F447269766520
:10356000725C7372635C73746D3332663130785F92
:103570007370692E6300000070B504460D46124852
:10358000844205D01148844202D01148844200D1BF
:1035900004E04FF4D7710FA001F026F90DB1012D11
:1035A00000D104E040F2AF110AA001F01DF925B1ED
:1035B000208840F04000208004E020884FF6BF7152
:1035C0000840208070BD00000030014000380040FD
:1035D000003C00402E2E5C53544D3332463130783F
:1035E0005F5374645065726970685F447269766590
:1035F000725C7372635C73746D3332663130785F02
:103600007370692E6300000010B5044618488442A8
:1036100005D01848844202D01748844200D103E004
:103620007A2116A001F0E0F81148844208D1012166
:103630008014FFF769FB0021A014FFF765FB16E07B
:103640000C48844208D101210014FFF7D9FA002167
:103650002014FFF7D5FA0AE00748844207D1012178
:10366000C013FFF7CDFA0021E013FFF7C9FA10BD30
:103670000030014000380040003C00402E2E5C53DA
:10368000544D3332463130785F53746450657269FB
:1036900070685F4472697665725C7372635C7374A0
:1036A0006D3332663130785F7370692E63000000CD
:1036B00070B505460C4600264F48854205D04F4858
:1036C000854202D04E48854200D103E0A3214DA09F
:1036D00001F08AF8208858B12088B0F5806F07D0B3
:1036E0002088B0F5004F03D02088B0F5404F00D1BE
:1036F00003E0A62143A001F077F86088B0F5827F4F
:1037000001D0608800B903E0A7213EA001F06CF869
:10371000A088B0F5006F01D0A08800B903E0A8210F
:1037200038A001F061F8E08810B1E088022800D1EB
:1037300003E0A92133A001F057F8208910B12089B6
:10374000012800D103E0AA212EA001F04DF86089E4
:10375000B0F5007F01D0608900B903E0AB2129A05A
:1037600001F042F8A089A0B1A089082811D0A08951
:1037700010280ED0A08918280BD0A089202808D0A6
:10378000A089282805D0A089302802D0A08938280F
:1037900000D103E0AC211BA001F026F8E08910B1B4
:1037A000E089802800D103E0AD2116A001F01CF8CB
:1037B000208A012800DB03E0AE2112A001F014F8FA
:1037C0002E8806F44156208861880843A188084362
:1037D000E18808432189084361890843A189084396
:1037E000E189084306432E80A88B4FF2FF71084001
:1037F000A883208A288270BD003001400038004034
:10380000003C00402E2E5C53544D3332463130780C
:103810005F5374645065726970685F44726976655D
:10382000725C7372635C73746D3332663130785FCF
:103830007370692E630000001FB50021492004F059
:1038400073FA002876D11021684604F035F9002873
:1038500070D09DF80000801154D1012036490870C5
:103860009DF8050000F00F01012088403249488092
:103870009DF809008007400F9DF80A1040EAD11416
:10388000A41C0120A04084B29DF806008007000D12
:103890009DF8071040EA81009DF8081040EAA11049
:1038A000401C6043244948609DF80A007F2101EADA
:1038B00040009DF80B1040EAD110401C1E49498879
:1038C00048431D4988819DF80A00C0F38010887321
:1038D0000846406849884843174988609DF80800B1
:1038E000C0F3C200C8739DF8080000F00700087418
:1038F0009DF80900400948749DF80900C0F3820052
:10390000887417E002200C490870000248809DF876
:1039100009009DF8081040EA01209DF807100122D7
:1039200002EB0141084380020349486008464068B1
:10393000400288601FBD000064BC002070B50446D2
:103940000D4601262146512004F0EEF928B97102F6
:10395000284604F0B1F800B100264FF400410248B7
:10396000FEF722F9304670BD000801402DE9F04114
:1039700006460C46154601273146522004F0D4F97C
:1039800090B900BF4FF40071204604F095F800B9DB
:1039900004E004F50074681E0500F3D100BF0021A7
:1039A0004C2004F0C1F900274FF400410448FEF711
:1039B000FBF815B13846BDE8F0813846FBE700005A
:1039C0000008014070B504460D46012621465820E6
:1039D00004F0AAF930B9FE21284604F0E1FA0128E2
:1039E00000D100264FF400410248FEF7DDF83046D2
:1039F00070BD0000000801402DE9F04106460D466B
:103A0000144601271448007810F0060F03D0214611
:103A1000D72004F089F93146592004F085F998B986
:103A200000BFFC21284604F0BBFA00B904E005F50C
:103A30000075601E0400F4D100BFFD21002004F0D9
:103A4000AFFA08B104B900274FF400410348FEF76C
:103A5000ABF83846BDE8F0818695002000080140AB
:103A60007047000000B58FB03C216846FCF7EEFBC4
:103A70001148406C20F001000F4948640846406C32
:103A800020F0010048640846406C40F002004864A1
:103A90000846806D20F002008865C1F850D03C20B7
:103AA00088640846406C40F00100486401200349E6
:103AB00008700FB000BD000000000240A495002077
:103AC0004FF6F8710140014A11607047505C0040A8
:103AD00030B501460E4B1A78002010E0C3B20D4CF1
:103AE00054F8233048F68F74234048F2800423436F
:103AF000C4B22343C4B2074D45F82430401C904261
:103B0000ECD341F08003034C4C34236030BD000003
:103B100018970020005C004010B54A105300054A79
:103B2000126892B202EBC002121D034C44F812302C
:103B300010BD0000505C00400060004010B502461F
:103B40000F48006880B200EBC200801D0D4C04EBF2
:103B500040033E290BDD481111F01F0F01D1441E17
:103B6000A0B24FF4004444EA80241C6007E04810EF
:103B700011F0010F01D0441CA0B284021C6010BDE2
:103B8000505C00400060004010B50C4B53F82030F2
:103B90004BF68F7403EA040211F4805F01D082F4C3
:103BA000805211F4005F01D082F4005242F40043CD
:103BB00043F08003014C44F8203010BD005C00400D
:103BC000094A52F820204BF68F7302EA030181F470
:103BD000805181F4005141F4004242F08002024BD6
:103BE00043F8202070470000005C004010B54A10E8
:103BF0005300044A126892B202EBC002024C44F82D
:103C0000123010BD505C004000600040044A126851
:103C100092B202EBC002921C024B43F812107047A2
:103C2000505C00400060004010B50C4B53F8203051
:103C300048F6BF7403EA040211F0100F01D082F0BD
:103C4000100211F0200F01D082F0200242F4004354
:103C500043F08003014C44F8203010BD005C00406C
:103C6000054A52F8202048F68F131A400A43024BA7
:103C700043F8202070470000005C004010B500F0C1
:103C800001F810BD0CB5002001900090324800688A
:103C900040F480303049086000BF2F48006800F4CD
:103CA000003000900198401C0190009818B90198CC
:103CB000B0F5A06FF1D12848006810F4003F02D0A1
:103CC0000120009001E0002000900098012842D1DE
:103CD0002248006840F0100020490860084600684B
:103CE00020F0030008600846006840F0010008600A
:103CF00019484068184948600846406848600846C6
:103D0000406840F4806048600846406820F47C10B9
:103D100048600846406840F48810486008460068DB
:103D200040F08070086000BF0B48006810F0007F12
:103D3000FAD00948406820F0030007494860084667
:103D4000406840F00200486000BF0348406800F04F
:103D50000C000828F9D10CBD0010024000200240E0
:103D600070B505460C460A480A49086008460573BE
:103D70000D22812000F04CFC0520074908702CB171
:103D80000420087030210120FFF74EFF70BD0000B5
:103D90005553425334CD00209496002000B503467D
:103DA0004FF0805008490860C013086043F080005D
:103DB00040F42040054908604FF000500249086077
:103DC0002820FDF794FB00BD100C01400C080140B9
:103DD000014B99701A7370476D96002038B5012415
:103DE0002948006880B2001D284931F8100080B2CF
:103DF00001EB4000009026480068007A092832D084
:103E0000009800782249096808700098401C0090CA
:103E1000009800781E49096848700098401C00907E
:103E2000009800EB44000090009931F8020B0091DB
:103E3000FCF75EFC164909684880009800EB4400D6
:103E40000090009931F8020B0091FCF751FC1049E9
:103E500009688880009800EB440000900098008872
:103E60000B490968C8800120094909680872084897
:103E70000068C08810B9FEF7F1FC01E0FDF7F0F929
:103E8000FEF7C4FD38BD0000505C004000600040FB
:103E9000B89500202DE9F0474B480068007800F005
:103EA0007F08B8F1000F0AD147480068407A00F057
:103EB000DF004549096848720020BDE8F087B8F185
:103EC000020F7ED140480068408818B93E4800681B
:103ED000007908B10220F0E7DFF8F0903A48006876
:103EE000477927F080052C4637480068407910F064
:103EF000800F05D0364850F8240000F0300604E06A
:103F0000334850F8240000F4405699F80000A842C5
:103F100004D91EB12C480068807A08B90220CCE789
:103F200017F0800F0ED02A4850F8240000F030001F
:103F300010283FD1E0B2FCF73BFFE0B23021FFF7A1
:103F400073FE37E0224850F8240000F44050B0F5EA
:103F5000805F2FD1C4B91F4A92F82C10E0B2FFF74E
:103F6000EDFD1B4951F824104BF68F7201EA020057
:103F700080F4805080F4005040F4004141F0800112
:103F8000134A42F8241015E0E0B2FCF7FBFE10499A
:103F900051F824104BF68F7201EA020080F4805031
:103FA00080F4005040F4004141F08001084A42F89A
:103FB000241000BF084909684869804700207CE751
:103FC000FFE700BF022078E7B8950020189700208F
:103FD000005C00401C970020C495002010B50446EA
:103FE0002CB90120064909680882002010BD054946
:103FF000096808688047024800680A30F6E7000050
:10400000B8950020C495002010B502460648006807
:10401000438A32B98888C01A034C24682082002061
:1040200010BD08681844FBE7B895002010B5044699
:104030002CB90120064909680882002010BD0549F5
:10404000096888688047024800680C30F6E700007D
:10405000B8950020C495002010B504462CB9022064
:10406000374909680882002010BD002035490880C2
:1040700033480068007810F07F0F23D13049096879
:10408000487A10F0200F06D02E49097841F002013D
:104090002C4A117005E02B49097801F0FD01294AED
:1040A000117010F0400F06D02649097841F0010147
:1040B000244A117005E02349097801F0FE01214AE4
:1040C000117036E01E480068007800F07F0001287B
:1040D00001D11C48C8E71A480068007800F07F004A
:1040E000022824D1164A1268517901F00F0011F00C
:1040F000800F0DD0144A52F8202002F03002102A0E
:1041000014D1104A127842F001020E4B1A700DE0E1
:104110000D4A52F8202002F44052B2F5805F05D1DA
:10412000084A127842F00102064B1A7001E00020A2
:104130009AE70649096808698047024894E7000041
:10414000B8950020B0950020005C0040C495002088
:1041500010B50E480068C0780D494978884213DCD4
:104160000A480068807878B908480068808858B99B
:1041700006480068C07805490968887205490968D9
:1041800048688047002010BD0220FCE7B895002059
:1041900018970020C495002010B507480068407AA1
:1041A00040F0200004490968487204490968C86958
:1041B0008047002010BD0000B8950020C495002065
:1041C0002DE9F04128480068467926F080073C46F2
:1041D00025480068407910F0800F05D0234850F83A
:1041E000240000F0300504E0204850F8240000F4DA
:1041F00040551F480078A04208D91B4800684088F5
:1042000020B91DB118480068807A10B90220BDE8B5
:10421000F08116F0800F10D0144951F8241048F6A0
:10422000BF7201EA020080F0100040F4004141F04A
:1042300080010E4A42F8241010E00C4951F8241075
:104240004BF68F7201EA020080F4805040F4004186
:1042500041F08001054A42F8241000BF0549096871
:10426000886980470020D2E7B8950020005C0040B4
:1042700018970020C495002010B5174B1B68D978FB
:10428000154B1B685879154B1B689A699047044673
:1042900011480068807AE8B13CB90F48006800799D
:1042A00018B90D480068807808B1022010BD8CB99B
:1042B0000B490968C8688047074800684079064983
:1042C0000968C87204480068C0780349096808731F
:1042D0000020EBE70220E9E7B8950020BC9500201C
:1042E000C495002010B51348006840F00100114942
:1042F000086008464068104908400E494860084672
:1043000000680E4908400B4908600846006820F420
:10431000802008600846406820F4FE0048604FF4A2
:104320001F008860FFF7AAFC4FF000600449086096
:1043300010BD0000001002400000FFF8FFFFF6FE75
:1043400008ED00E010B54FF08040008A20F0010039
:104350004FF0804108822A480078052803D0284879
:104360000078062817D1274800780B2808D126485E
:10437000006810F4804F03D00B20224908700AE037
:1043800020480078401E1F490870084600780A2817
:1043900001D10F2008701D48007828B11B48007813
:1043A000401E1A49087011E015480078042803D00F
:1043B00013480078012809D14FF48070144908800F
:1043C0000420C87010480838FDF738FA0F48007804
:1043D000122805DA0F48008820F480500D49088023
:1043E0000D480078401E0C4908700846007828B92E
:1043F00001200A49087000200949087010BD00001A
:10440000459500207E950020080C01407F950020F6
:1044100080950020200800404B9500204A95002000
:10442000A595002070B505460C46224629468120F8
:1044300000F0EEF830210120FFF7F6FB03200549DC
:10444000087005488068001B0349886000200873D5
:1044500070BD00009496002034CD002008B54FF4C4
:104460000070ADF800001C208DF8030002208DF8CC
:10447000020069461348FDF7E1F91348008820F46B
:10448000A05011490880081D008840F40050091D03
:104490000880081D008840F0C000091D08800B48F6
:1044A000406C40F090000949486407480838C864E7
:1044B0000846806D40F0800088650348083808662B
:1044C00008BD0000000801400C3801400000024017
:1044D00010B54FF48020FDF7F5F810BD38B504464F
:1044E000012C11D14003ADF8000002208DF802002C
:1044F00014208DF8030069460B48FDF79FF961030E
:104500000948FDF7FFFA0DE04FF40050ADF8000048
:1045100002208DF8020004208DF80300694602484D
:10452000FDF78CF938BD00000010014010B50848B7
:1045300008490860022009680872074807490860AE
:10454000074808490860054909680868804710BDA0
:10455000B8BC0020B89500201C970020BC95002016
:104560004C970020C495002010B502211420FEF7BE
:1045700061F901212A20FEF75DF91420FEF73AF9CE
:104580002A20FEF737F910BD10B50F4800680F4913
:1045900008800846008800F400400D490988084258
:1045A00001D0FCF70DFA0948008800F48060084942
:1045B0000988084206D04FF6FF30034908600549D4
:1045C0004868804710BD0000445C00401097002000
:1045D000C29500201C97002010B5FFF7D5FF10BD35
:1045E00070472DE9F04104460E46002504F07F0097
:1045F000FDF73CFB054604F07F00FDF727FB07466F
:104600002A4639463046FEF7EBF92846BDE8F081E8
:104610002DE9F04104460E46154604F07F00FDF7F3
:1046200041FB0746AAB23946304600F00BF8A9B262
:1046300004F07F00FFF7EAFA0020BDE8F08100BF38
:10464000FEE70000F0B5144604F1010C4FEA6C07D8
:10465000DFF824C00CEB41033D460AE00678401C1D
:1046600090F800C046EA0C2223F8022B9B1C401C49
:104670006D1E002DF2D1F0BD006000402DE9F0412B
:1046800004460D4616464C48006800F140074B486A
:10469000007890B94A4850F82400684349490860B6
:1046A000474850F8240070434749086008460068AE
:1046B00046490860012041490870404800780128B7
:1046C00068D100204249086010E041480168006854
:1046D000401C3F4A10603F48405C3F49364A1268E0
:1046E000885435480068401C3349086032480068E7
:1046F000B842EAD333480068384909880844314948
:1047000008603148006835490988401A2E49086018
:10471000294800680005000D02D00846006820BB4B
:104720000020254908602848006870B125490968BB
:10473000A1F5805008222849FFF75EF92348006858
:10474000A0F580502149086018E020480068B0F5C5
:10475000007F0BD91D4909684A0A1A4909681B4B91
:104760001B68C81A1C49FFF747F907E01549096893
:10477000164A1268881A1849FFF724F91848806801
:1047800016490988401A164988604FF440510220A2
:10479000FFF7FAF90C48006818B1124800780428AD
:1047A00008D10020044908600121FFF7D9FA002050
:1047B00002490870BDE8F081EC950020F0950020DA
:1047C000D89500200096002004960020089600202E
:1047D00010960020D4CC0020D4BC00209696002057
:1047E00034CD00209496002000BFFEE7F8B50546C2
:1047F0000E460020009001200D490880002404E0AE
:104800002819FBF7FBFE601C84B2B442F8DB684653
:10481000FBF7F4FE6846FBF7F1FE05480078054912
:104820008871034800880012C87101480088F8BDEB
:10483000A29500204E95002070B504460D46607884
:1048400001232A4604F1340100F0ECFE08B10320F4
:1048500070BD94F8321294F8330241EA0020A0F5BA
:104860002A41553901D00220F2E794F86D00010683
:1048700094F86C0041EA004194F86B0041EA002092
:1048800094F86A10084320F07F400E49884201D115
:104890000020DDE794F88900010694F8880041EAD9
:1048A000004194F8870041EA002094F886100843FC
:1048B00020F07F400349884201D10020C8E7012051
:1048C000C6E7000046415400F8B506460C460020F5
:1048D0000090002504E07019FBF7BCFE681C85B24F
:1048E000A542F8DBA4F5F850FE3805D16846FBF781
:1048F000B1FE6846FBF7AEFE01480088F8BD000037
:1049000048950020024600E0521C107810B1107843
:104910008842F9D1107870472DE9F74F88B0089890
:1049200000680190019800783038079007980928AE
:104930000AD8019840783A2806D10198801C019045
:1049400008990198086001E000200790002109986B
:104950000160079818B10B200BB0BDE8F08FD1496A
:10496000079851F820400CB90C20F5E7099804602D
:10497000207878B1607800F07FFE804618F0010F53
:1049800008D10A9820B118F0040F01D00A20E3E7FB
:104990000020E1E70020207007986070607800F048
:1049A000FBFD804618F0010F01D00320D4E70A98E0
:1049B00020B118F0040F01D00A20CDE74FF0000914
:1049C00049462046FFF738FF054600BF012D21D19B
:1049D0004FF0000BBBF1000F03D0ABF1010000F072
:1049E000FF0B4FF4DF7000EB0B1104F134000F18D4
:1049F000387978B1F87A0106B87A41EA0041787AD4
:104A000041EA0020397A40EA010949462046FFF789
:104A100013FF0546032D01D101209DE70DB10D20A7
:104A20009AE73F20015D94F8400041EA0020B0F58C
:104A3000007F01D00D208FE74A20015D94F84B00E4
:104A400041EA002ABAF1000F0ED194F85B0001068A
:104A500094F85A0041EA004194F8590041EA0020D4
:104A600094F8581040EA010AC4F81CA04420065DDE
:104A7000E670012E03D0022E01D00D206CE70AFB58
:104A800006FA4120005D0646A07016B1701E304245
:104A900001D00D2060E74520015D94F8460041EA11
:104AA00000202081207A10F00F0F01D00D2053E755
:104AB0004720015D94F8480041EA002006900698DE
:104AC00070B994F85700010694F8560041EA004185
:104AD00094F8550041EA002094F8541008430690D9
:104AE0004220015D94F8430041EA002002900298C0
:104AF00008B90D2030E702985044218900EB1110CD
:104B00000590DDE90501814201D20D2024E7DDE9B0
:104B10000510401AA178B0FBF1F00490049808B990
:104B20000D2019E7012540F6F6710498884200D35C
:104B300002254FF6F6710498884200D303250498A5
:104B4000801CA061C4F820900298484460620598D7
:104B50004844E062032D16D1208908B10D20FBE600
:104B600094F86300010694F8620041EA004194F869
:104B7000610041EA002094F860100843A062A06937
:104B80008000039014E0208908B90D20E4E6606AF3
:104B90005044A062022D02D1A069400007E0207EAF
:104BA00000F00100A16901EB410100EB510003900D
:104BB000E169039800F2FF10B1EB502F01D20D20F4
:104BC000CAE64FF0FF3020610020E060032D5CD189
:104BD000607194F8641094F8650041EA002048443C
:104BE00060616078012304F13401626900F01AFD0C
:104BF000F0BB94F8321294F8330241EA0020A0F599
:104C00002A41553941D13720005D01063620005D2B
:104C100041EA00413520005D41EA002094F834105B
:104C200008432149884230D194F81B02010694F8C8
:104C30001A0241EA004194F8190241EA002094F86E
:104C400018120843194988421FD194F8230201061B
:104C500094F8220241EA004194F8210241EA00203E
:104C600094F820120843E06094F81F02010600E067
:104C70000BE094F81E0241EA004194F81D0241EA5B
:104C8000002094F81C120843206125700848008811
:104C9000401C80B206490880E0800020206320711B
:104CA00000BF59E6A89500205252614172724161DD
:104CB000AC9500200246891E9069801E884201D86A
:104CC000002070479378D06A01FB0300F9E70000E9
:104CD0002DE9F04705460C46207820F04000401EA4
:104CE00000EB800101EBC00600274FF0010800BF78
:104CF0001A48C05D205C1949C95D2144497840EAE1
:104D00000129B8F1000F10D0484601F027FE804677
:104D10001E2E07D23146761C35F8110001F01EFE1A
:104D2000404508D00020BDE8F087A9F57F40FF3856
:104D300001D00020F7E7781C07460D28D8D320784B
:104D400010F0400F07D0B8F1000F04D035F816006E
:104D500008B10020E7E70120E5E700008E800008A9
:104D60002DE9F04704468946B9F1000F06D1E768FE
:104D700017B1A069B84211D801270FE04946204673
:104D800001F0E5FE0646022E02D20120BDE8F087C2
:104D9000A069B04201D93046F8E74F463D4600BF12
:104DA0006D1CA069A84204D80225BD4201D900208B
:104DB000ECE72946204601F0CAFE064606B909E09E
:104DC000701C01D0012E01D13046DFE7BD42E7D192
:104DD0000020DBE700BF6FF070422946204602F05A
:104DE000CDFD8046B8F1000F08D1B9F1000F05D014
:104DF0002A464946204602F0C1FD8046B8F1000F20
:104E000009D1E5602069401C0DD02069401E206159
:104E10000120607107E0B8F1010F02D14FF0FF30BF
:104E200000E0012005462846B0E700002DE9F34FD9
:104E300083B082460498D0F800B001E00BF1010B7A
:104E40009BF800002F28F9D09BF800005C28F5D0D3
:104E5000DAF81C9000252E4600BF3046761C1BF861
:104E60000040202C03DB2F2C01D05C2C00D11CE057
:104E70001E2D03D3062005B0BDE8F08FE4B201215A
:104E8000204601F045FD04460CB90620F3E7802CCE
:104E900006DA21466BA0FFF735FD08B10620EAE7E8
:104EA00028466D1C29F81040D7E700BF0BEB060120
:104EB00004980160202C01DA042000E0002007465D
:104EC00008E0681E39F81040202C02D02E2C00D0AB
:104ED00002E06D1E002DF4D100BF0DB90620CAE717
:104EE000002029F815000B222021DAF8180002F022
:104EF00055FC002600E0761C39F816002028FAD070
:104F000039F816002E28F6D00EB147F0030700E05E
:104F10006D1E25B1681E39F810002E28F8D14FF00B
:104F20000008CDF808800820019000BF3046761CAC
:104F300039F8104004B955E0202C03D02E2C04D1B0
:104F4000AE4202D047F00307F0E7DDE901108842E6
:104F500001D2AE4216D101980B2802D147F00307C7
:104F600040E0AE4201D047F00307AE4200D939E03D
:104F70002E46082002900B2001904FEA88604FEAED
:104F80001068D3E7802C0BDB0021204601F0C0FC29
:104F900004461CB1A4F180002D490C5C47F00207C7
:104FA00000BF24B121462BA0FFF7ACFC18B15F2451
:104FB00047F003070FE0412C04DB5A2C02DC48F0D9
:104FC000020808E0612C06DB7A2C04DC48F00108BA
:104FD000A4F1200084B2DAF818300298411C029142
:104FE0001C54A3E700BFDAF818000078E52803D1C5
:104FF0000520DAF8181008700198082803D14FEA44
:1050000088604FEA106808F00C000C2803D008F004
:105010000300032801D147F0020717F0020F0BD15C
:1050200008F00300012801D147F0100708F00C0038
:10503000042801D147F00807DAF81800C7720020E9
:1050400019E70000222A3A3C3E3F7C7F0000000026
:105050000E8000082B2C3B3D5B5D00002DE9F041EC
:1050600004460E460021204600F047FA0546EDB9F9
:10507000002700BF2169206802F09AFB054605B1B0
:1050800013E060690078E52802D06069007820B9F3
:10509000781C0746B04201D107E0002701212046D5
:1050A00000F076F80546002DE4D000BF2846BDE8A4
:1050B000F0812DE9F04704460021204600F01DFA5A
:1050C000074617B13846BDE8F0874FF0FF09CA46DA
:1050D00000BF2169206802F06BFB074607B154E06E
:1050E00065692E780EB904274FE0E87A00F03F0892
:1050F000E52E05D018F0080F05D0B8F10F0F02D03B
:105100004FF0FF093AE0B8F10F0F1CD1E069A0B3EE
:1051100016F0400F06D095F80DA026F04006B146D7
:10512000E08820844E450AD1687B504507D1294646
:10513000E069FFF7CDFD10B1A9F1010000E0FF200B
:1051400000F0FF091AE0B9F1000F05D1284602F07E
:1051500055FE504500D118E04FF0FF094FF6FF70A3
:105160002084A069C07A10F0010F07D10B222846D5
:10517000A16902F0F3FA00B907E0FFE70021204639
:1051800000F006F80746002FA3D000BF38469AE784
:105190002DE9F0410446884600BFE088401C86B2F5
:1051A0000EB1206910B90420BDE8F08116F00F0F90
:1051B0006CD12069401C2061E06828B92068008912
:1051C000B04263DC0420EFE720688078401E10EADC
:1051D000161F5BD1E168206801F0B9FC0546012D7E
:1051E00001D80220E0E7681C01D10120DCE720683B
:1051F0008069A84244D8B8F1000F01D10420D3E758
:10520000E1682068FFF7ACFD05460DB90720CBE744
:10521000012D01D10220C7E7681C01D10120C3E79D
:10522000206802F05FFE08B10120BDE7216801F1AE
:1052300034004FF40072002102F0B0FA29462068D1
:10524000FFF738FD2168086300270FE0012021687F
:105250000871206802F046FE08B10120A4E720682A
:10526000006B401C21680863781CC7B220688078F6
:10527000B842EBDC2068006BC01B2168086300BFEC
:10528000E56029462068FFF715FD2061E68020686B
:10529000343006F00F0100EB41106061002083E71D
:1052A0002DE9F05F04468A464FF0FF09CB460427FC
:1052B0004EE02169206802F07BFA074607B14AE018
:1052C000666935780DB9042745E0F07A00F03F08AB
:1052D000E52D09D02E2D07D0B8F1080F01D10120FE
:1052E00000E00020504502D04FF0FF0929E0B8F15E
:1052F0000F0F1AD115F0400F06D096F80DB025F01B
:105300004005A946E08820844D450AD1707B584568
:1053100007D13146E06902F065FA10B1A9F1010048
:1053200000E0FF2000F0FF090BE0B9F1000F04D10D
:10533000304602F063FD584502D04FF6FF702084DE
:1053400009E000212046FFF723FF074607B102E0EE
:1053500020690028ADD100BF0FB100202061384680
:10536000BDE8F09F2DE9FE4F0446D4F81880D4F82C
:105370001C900C224146684602F003FA00BF9DF8DB
:105380000B0010F0010F25D0002088F80B00E06121
:1053900001260DE033464A466946404601F083FB4C
:1053A0002046FFF786FE054605B103E0701C86B275
:1053B000642EEFDB00BF642E02D10720BDE8FE8F14
:1053C000042D01D02846F9E79DF80B0088F80B0062
:1053D000C4F81C909DF80B0010F0020F0ED00026B0
:1053E00001E0701C86B239F816000028F9D106F1E8
:1053F00019000D2190FBF1F087B200E0012739463A
:105400002046FFF72BFE05465DBB781E80B20700E5
:1054100027D0E088C01B81B2204600F06EF8054618
:10542000FDB9A06902F0EAFC824600BF216920684C
:1054300002F0BEF9054605B112E0FAB253466169C1
:10544000E06901F0A7FA01202168087100212046D7
:10545000FFF79EFE05461DB9781E80B20700E5D114
:1054600000BFC5B92169206802F0A2F9054695B9C7
:1054700020220021606902F091F90B22D4E9050194
:1054800002F07FF9A069C07A00F018006169087322
:10549000012021680871284690E770B50446E68827
:1054A000208CA0F57F42FF3A01D1304600E0208CED
:1054B0000146204600F021F80546E5B900BF216904
:1054C000206802F075F9054605B110E0E520616934
:1054D0000870012021680871E088B04200DB06E016
:1054E00000212046FFF754FE0546002DE7D000BFFF
:1054F000042D00D10225284670BD2DE9F041044657
:105500000E46E680A568012D03D020688069A84278
:1055100002D80220BDE8F0812DB920680078032868
:1055200001D12068856A65B9E56020680089B042CC
:1055300001DC0220EEE72068806A00EB1610206193
:1055400020E020688078070112E02946206801F0F9
:10555000FEFA0546681C01D10120DBE7022D03D3CA
:1055600020688069A84201D80220D3E7F01B86B2E8
:10557000BE42EADAE56029462068FFF79BFB00EBB4
:10558000161020612068343006F00F0100EB411046
:1055900060610020BEE7000010B504460CB1012098
:1055A00010BD0A48007810F0020F02D007480078BA
:1055B000F6E70648007810B904480078F0E702F0F2
:1055C000E5FA0249087008460078E9E78595002069
:1055D00010B503462BB1012B02D0022B19D117E0D5
:1055E00010BD012904D0022906D003290ED108E0FC
:1055F0000A4C6468146009E0094C24881460002097
:1056000004E0064CA4891460002000BF00BF00BF66
:1056100001E0042000BF00BF00BFE1E764BC002040
:10562000409500202DE9F04106460F4615461C46E0
:1056300006B914B90420BDE8F0810D48007810F0D7
:10564000010F01D00320F6E70A48007810F0080F98
:1056500000D16D02012C04D139462846FEF76EF9BF
:10566000E9E7224639462846FEF780F9E3E70000DD
:105670008595002086950020014609B101207047DC
:1056800001480078FBE70000859500202DE9F041F6
:1056900006460F4615461C4606B914B90420BDE857
:1056A000F0811048007810F0010F01D00320F6E7D8
:1056B0000C48007810F0040F01D00220EFE70A48F0
:1056C000007810F0080F00D16D02012C04D139468A
:1056D0002846FEF777F9E2E7224639462846FEF7E4
:1056E0008BF9DCE7859500208695002070B58CB09D
:1056F00005460C461646384800680090049600207F
:105700000B9009904FF440500A90002007900890A9
:1057100032480190002005903148406840F40870FC
:105720002F494860ADB1029480200690002003907C
:1057300001A92B481C30FBF7F5FBCDF808D0002061
:1057400006901020039001A925483030FBF7EAFBB2
:1057500013E0CDF808D000200690039001A920485E
:105760001C30FBF7DFFB0294802006901020039092
:1057700001A91B483030FBF7D5FB1948C06940F040
:1057800001001749C8610846006B40F0010008633A
:1057900012480C38808840F0030010490C3988808A
:1057A00000BF0F48006800F020002028F9D10C4805
:1057B000C06920F001000A49C8610846006B20F06A
:1057C0000100086305480C38808820F00300034975
:1057D0000C3988800CB070BD0C8000080C30014082
:1057E0000000024070B50446204600F0D9FE054690
:1057F0000DB900202060284670BD2DE9F74189B021
:105800000D4690460022694609A8FFF785F8044630
:1058100024BB1DB30020029000216846FFF76DFEF7
:105820000446DCB901216846FFF73AFD044684B915
:105830000B222846059901F0A4FF0B2700BF00208A
:10584000E85507B904E0781E0746285C2028F6D002
:1058500000BF042C02D100202870002444BBB8F102
:10586000000F25D0009A1046116A01F0A1FF0446EE
:10587000F4B900980078032801D1432000E02720E4
:105880000646009834303044C07801060098343021
:105890003044807841EA0041009834303044407808
:1058A00041EA002000993431895D0843C8F80000BE
:1058B00020460CB0BDE8F0812DE9F04704460E46C5
:1058C000204602F038FB8246BAF1000F02D0504663
:1058D000BDE8F087A07910F0800F01D00220F7E733
:1058E000E068B04204D2A07910F0020F00D1E6685F
:1058F000D4F808904FF00008C4F80880002E77D044
:10590000206880784702B9F1000F11D0701EB0FBFB
:10591000F7F1A9F10100B0FBF7F0814208D3A9F13A
:105920000100791E8843A060A068361A656918E0F6
:105930002569ADB900212068FFF712FA0546012D4F
:1059400005D1A07940F08000A0710220C0E7681C5A
:1059500005D1A07940F08000A0710120B8E7256151
:105960006561002D44D029E0A07910F0020F07D026
:1059700029462068FFF7F4F9054635B93E461FE091
:105980002946206801F0E3F80546681C05D1A07996
:1059900040F08000A07101209AE7012D03D9206812
:1059A0008069A84205D8A07940F08000A07102204B
:1059B0008EE76561A0683844A060F61BBE42D3D86C
:1059C00000BFA0683044A060F005C00D10D029468B
:1059D0002068FFF76FF98046B8F1000F06D1A07973
:1059E00040F08000A071022072E701E008EB562829
:1059F0002089C005C00D2AD0A069404527D0A079D4
:105A000010F0400F12D021684878012304F12401DE
:105A1000A269FFF73BFE28B1A07940F08000A07199
:105A2000012055E7A07920F04000A0712168487856
:105A30000123424604F12401FFF7F4FD28B1A079C7
:105A400040F08000A071012042E7C4F81880D4E93A
:105A50000201884205D9A068E060A07940F02000EA
:105A6000A071504634E700002DE9F1478DB001F0F8
:105A7000E1F80646012204A90DA8FEF74DFF0546F0
:105A8000002D6FD101A80A9050480B9004A80D99E1
:105A900000F0C0FF054605B9082500BF042DF0D170
:105AA00000210498FFF75CF90746002507B9072590
:105AB000012F00D10225781C00D101251DB90498C1
:105AC00002F010FA0546002D5BD139460498FFF725
:105AD000F1F88146049800F134044FF4007200217B
